:1000000014C08EC07DC02CC02BC02AC0ACC028C07C
:1000100027C026C025C024C023C022C021C020C0C4
:100020001FC01EC01DC01CC01BC011241FBECFE5B9
:10003000D1E0DEBFCDBF10E0A0E6B0E0EAE5F3E03E
:1000400002C005900D92A436B107D9F720E0A4E6CE
:10005000B0E001C01D92AD36B207E1F758D17BC1C7
:10006000CFCF9091670080916400981306C0C19A29
:10007000C098C398C29AC598C49A9091670080911D
:100080006200981316C080916B0081110AC0C19A5A
:10009000C098C398C29AC598C49A81E080936B00B7
:1000A00008C0C198C098C398C29AC598C49A1092C3
:1000B0006B009091670080916100981306C0C19811
:1000C000C09AC39AC298C59AC498909167008091CB
:1000D0006000981314C080916B00C198C09A811180
:1000E00008C0C39AC298C59AC49881E080936B00F7
:1000F0000895C398C298C598C49A10926B00089549
:100100001F920F920FB60F9211248F938091680067
:1001100080936C008F910F900FBE0F901F901895D9
:100120001F920F920FB60F9211242F933F934F936C
:100130005F936F937F938F939F93AF93BF93EF934F
:10014000FF93DEDFFF91EF91BF91AF919F918F9170
:100150007F916F915F914F913F912F910F900FBEC3
:100160000F901F9018951F920F920FB60F921124A7
:100170002F933F934F935F936F937F938F939F93AF
:10018000AF93BF93EF93FF93809169008E3351F546
:10019000809166008A3030F580916700909164000C
:1001A000891320C090916A0089131CC090916C0043
:1001B00080916800981311C054DF8091640080938F
:1001C00067008091620080936A00109269008091BC
:1001D00066008F5F8093660005C043DF1092690060
:1001E00010926600809169008E3331F5809166002F
:1001F0008D3010F5909167008091640098131CC0B9
:1002000080916A0090916200891316C090916500F8
:1002100090936C008093670024DF8091640080934A
:1002200067008091620080936A001092690080915B
:1002300066008F5F80936600809169008E3361F560
:10024000909166009A3040F520916700809162009D
:10025000281322C080916A002091610082131CC083
:1002600080936700993089F0FCDE109269008091DC
:1002700066008F5F809366008091620080936700C4
:100280008091610080936A0007C080916000809334
:100290006A008AE080936600809169008E3319F5C8
:1002A000909166009D30F8F4209167009091610074
:1002B000291319C090916A0020916000921313C015
:1002C00090936700CEDE10926900809166008F5F88
:1002D0008093660080916100809367008091600048
:1002E00080936A0003C08F5F80936900FF91EF9154
:1002F000BF91AF919F918F917F916F915F914F913E
:100300003F912F910F900FBE0F901F90189581E095
:10031000809368001092650080916400809367006C
:1003200080936A001092690010926B0010926C002A
:10033000109266008FEF87BB929A939A12BE85E067
:1003400083BF82E089BF8BB7806C8BBF85B78A6023
:0A03500085BF7894FFCFF894FFCF2B
:04035A000302010099
:00000001FF
